{
  "address": "0x3FF122d2C052B45Ea99433175FC3540aB1096552",
  "abi": [
    {
      "inputs": [],
      "stateMutability": "nonpayable",
      "type": "constructor"
    },
    {
      "anonymous": false,
      "inputs": [
        {
          "indexed": true,
          "internalType": "address",
          "name": "user",
          "type": "address"
        },
        {
          "indexed": true,
          "internalType": "uint256",
          "name": "pid",
          "type": "uint256"
        },
        {
          "indexed": false,
          "internalType": "uint256",
          "name": "amount",
          "type": "uint256"
        }
      ],
      "name": "Deposit",
      "type": "event"
    },
    {
      "anonymous": false,
      "inputs": [
        {
          "indexed": true,
          "internalType": "address",
          "name": "user",
          "type": "address"
        },
        {
          "indexed": true,
          "internalType": "uint256",
          "name": "pid",
          "type": "uint256"
        },
        {
          "indexed": false,
          "internalType": "uint256",
          "name": "amount",
          "type": "uint256"
        }
      ],
      "name": "Withdraw",
      "type": "event"
    },
    {
      "inputs": [
        {
          "internalType": "contract ERC20",
          "name": "_lpToken",
          "type": "address"
        }
      ],
      "name": "add",
      "outputs": [],
      "stateMutability": "nonpayable",
      "type": "function"
    },
    {
      "inputs": [
        {
          "internalType": "uint256",
          "name": "_pid",
          "type": "uint256"
        },
        {
          "internalType": "uint256",
          "name": "_amount",
          "type": "uint256"
        }
      ],
      "name": "deposit",
      "outputs": [],
      "stateMutability": "nonpayable",
      "type": "function"
    },
    {
      "inputs": [
        {
          "internalType": "contract SusuToken",
          "name": "_token",
          "type": "address"
        }
      ],
      "name": "initialize",
      "outputs": [],
      "stateMutability": "nonpayable",
      "type": "function"
    },
    {
      "inputs": [],
      "name": "isInitialized",
      "outputs": [
        {
          "internalType": "bool",
          "name": "",
          "type": "bool"
        }
      ],
      "stateMutability": "view",
      "type": "function"
    },
    {
      "inputs": [
        {
          "internalType": "uint256",
          "name": "",
          "type": "uint256"
        }
      ],
      "name": "poolInfo",
      "outputs": [
        {
          "internalType": "contract ERC20",
          "name": "lpToken",
          "type": "address"
        },
        {
          "internalType": "uint256",
          "name": "allocPoint",
          "type": "uint256"
        },
        {
          "internalType": "uint256",
          "name": "lastRewardBlock",
          "type": "uint256"
        },
        {
          "internalType": "uint256",
          "name": "accRewardPerShare",
          "type": "uint256"
        }
      ],
      "stateMutability": "view",
      "type": "function"
    },
    {
      "inputs": [],
      "name": "rewardToken",
      "outputs": [
        {
          "internalType": "contract SusuToken",
          "name": "",
          "type": "address"
        }
      ],
      "stateMutability": "view",
      "type": "function"
    },
    {
      "inputs": [],
      "name": "startBlock",
      "outputs": [
        {
          "internalType": "uint256",
          "name": "",
          "type": "uint256"
        }
      ],
      "stateMutability": "view",
      "type": "function"
    },
    {
      "inputs": [],
      "name": "totalAllocPoint",
      "outputs": [
        {
          "internalType": "uint256",
          "name": "",
          "type": "uint256"
        }
      ],
      "stateMutability": "view",
      "type": "function"
    },
    {
      "inputs": [
        {
          "internalType": "uint256",
          "name": "",
          "type": "uint256"
        },
        {
          "internalType": "address",
          "name": "",
          "type": "address"
        }
      ],
      "name": "userInfo",
      "outputs": [
        {
          "internalType": "uint256",
          "name": "amount",
          "type": "uint256"
        },
        {
          "internalType": "uint256",
          "name": "rewardDebt",
          "type": "uint256"
        }
      ],
      "stateMutability": "view",
      "type": "function"
    },
    {
      "inputs": [
        {
          "internalType": "uint256",
          "name": "_pid",
          "type": "uint256"
        },
        {
          "internalType": "uint256",
          "name": "_amount",
          "type": "uint256"
        }
      ],
      "name": "withdraw",
      "outputs": [],
      "stateMutability": "nonpayable",
      "type": "function"
    }
  ],
  "transactionHash": "0xe4b5283b070bcb87ea3e1ea170821cf64788d8f738b0fada5e4d02676123e981",
  "args": [],
  "numDeployments": 2,
  "solcInputHash": "8b15f7e10044897b36ec5bfdb80a889e",
  "bytecode": "0x608060405260008060006101000a81548160ff0219169083151502179055506000600155600060025534801561003457600080fd5b50611067806100446000396000f3fe608060405234801561001057600080fd5b506004361061009e5760003560e01c806348cd4cb11161006657806348cd4cb11461014a57806393f1a40b14610168578063c4d66de814610199578063e2bbb158146101b5578063f7c618c1146101d15761009e565b80630a3b0a4f146100a35780631526fe27146100bf57806317caf6f1146100f2578063392e53cd14610110578063441a3e701461012e575b600080fd5b6100bd60048036038101906100b89190610ad4565b6101ef565b005b6100d960048036038101906100d49190610b37565b6102f5565b6040516100e99493929190610bd2565b60405180910390f35b6100fa610355565b6040516101079190610c17565b60405180910390f35b61011861035b565b6040516101259190610c4d565b60405180910390f35b61014860048036038101906101439190610c68565b61036c565b005b6101526106bf565b60405161015f9190610c17565b60405180910390f35b610182600480360381019061017d9190610cd4565b6106c5565b604051610190929190610d14565b60405180910390f35b6101b360048036038101906101ae9190610d7b565b6106f6565b005b6101cf60048036038101906101ca9190610c68565b61073a565b005b6101d9610a39565b6040516101e69190610dc9565b60405180910390f35b6000600254431161020257600254610204565b435b905060006103e89050806001600082825461021f9190610e13565b92505081905550600460405180608001604052808573ffffffffffffffffffffffffffffffffffffffff1681526020018381526020018481526020016000815250908060018154018082558091505060019003906000526020600020906004020160009091909190915060008201518160000160006101000a81548173ffffffffffffffffffffffffffffffffffffffff021916908373ffffffffffffffffffffffffffffffffffffffff1602179055506020820151816001015560408201518160020155606082015181600301555050505050565b6004818154811061030557600080fd5b90600052602060002090600402016000915090508060000160009054906101000a900473ffffffffffffffffffffffffffffffffffffffff16908060010154908060020154908060030154905084565b60015481565b60008054906101000a900460ff1681565b60006004838154811061038257610381610e47565b5b90600052602060002090600402016040518060800160405290816000820160009054906101000a900473ffffffffffffffffffffffffffffffffffffffff1673ffffffffffffffffffffffffffffffffffffffff1673ffffffffffffffffffffffffffffffffffffffff1681526020016001820154815260200160028201548152602001600382015481525050905060006005600085815260200190815260200160002060003373ffffffffffffffffffffffffffffffffffffffff1673ffffffffffffffffffffffffffffffffffffffff168152602001908152602001600020604051806040016040529081600082015481526020016001820154815250509050828160000151116104ca576040517f08c379a00000000000000000000000000000000000000000000000000000000081526004016104c190610ed3565b60405180910390fd5b60008160200151836060015183600001516104e59190610ef3565b6104ef9190610f35565b9050600360009054906101000a900473ffffffffffffffffffffffffffffffffffffffff1673ffffffffffffffffffffffffffffffffffffffff1663a9059cbb33836040518363ffffffff1660e01b815260040161054e929190610f78565b6020604051808303816000875af115801561056d573d6000803e3d6000fd5b505050506040513d601f19601f820116820180604052508101906105919190610fcd565b50600360009054906101000a900473ffffffffffffffffffffffffffffffffffffffff1673ffffffffffffffffffffffffffffffffffffffff1663a9059cbb33866040518363ffffffff1660e01b81526004016105ef929190610f78565b6020604051808303816000875af115801561060e573d6000803e3d6000fd5b505050506040513d601f19601f820116820180604052508101906106329190610fcd565b5083826000018181516106459190610f35565b91508181525050826060015182600001516106609190610ef3565b826020018181525050843373ffffffffffffffffffffffffffffffffffffffff167ff279e6a1f5e320cca91135676d9cb6e44ca8a08c0b88342bcdb1144f6511b568866040516106b09190610c17565b60405180910390a35050505050565b60025481565b6005602052816000526040600020602052806000526040600020600091509150508060000154908060010154905082565b80600360006101000a81548173ffffffffffffffffffffffffffffffffffffffff021916908373ffffffffffffffffffffffffffffffffffffffff16021790555050565b6000600483815481106107505761074f610e47565b5b90600052602060002090600402016040518060800160405290816000820160009054906101000a900473ffffffffffffffffffffffffffffffffffffffff1673ffffffffffffffffffffffffffffffffffffffff1673ffffffffffffffffffffffffffffffffffffffff1681526020016001820154815260200160028201548152602001600382015481525050905060006005600085815260200190815260200160002060003373ffffffffffffffffffffffffffffffffffffffff1673ffffffffffffffffffffffffffffffffffffffff16815260200190815260200160002060405180604001604052908160008201548152602001600182015481525050905060008160000151111561092957600081602001518360600151836000015161087a9190610ef3565b6108849190610f35565b9050600360009054906101000a900473ffffffffffffffffffffffffffffffffffffffff1673ffffffffffffffffffffffffffffffffffffffff1663a9059cbb33836040518363ffffffff1660e01b81526004016108e3929190610f78565b6020604051808303816000875af1158015610902573d6000803e3d6000fd5b505050506040513d601f19601f820116820180604052508101906109269190610fcd565b50505b816000015173ffffffffffffffffffffffffffffffffffffffff166323b872dd3330866040518463ffffffff1660e01b815260040161096a93929190610ffa565b6020604051808303816000875af1158015610989573d6000803e3d6000fd5b505050506040513d601f19601f820116820180604052508101906109ad9190610fcd565b5082816000018181516109c09190610e13565b91508181525050816060015181600001516109db9190610ef3565b816020018181525050833373ffffffffffffffffffffffffffffffffffffffff167f90890809c654f11d6e72a28fa60149770a0d11ec6c92319d6ceb2bb0a4ea1a1585604051610a2b9190610c17565b60405180910390a350505050565b600360009054906101000a900473ffffffffffffffffffffffffffffffffffffffff1681565b600080fd5b600073ffffffffffffffffffffffffffffffffffffffff82169050919050565b6000610a8f82610a64565b9050919050565b6000610aa182610a84565b9050919050565b610ab181610a96565b8114610abc57600080fd5b50565b600081359050610ace81610aa8565b92915050565b600060208284031215610aea57610ae9610a5f565b5b6000610af884828501610abf565b91505092915050565b6000819050919050565b610b1481610b01565b8114610b1f57600080fd5b50565b600081359050610b3181610b0b565b92915050565b600060208284031215610b4d57610b4c610a5f565b5b6000610b5b84828501610b22565b91505092915050565b6000819050919050565b6000610b89610b84610b7f84610a64565b610b64565b610a64565b9050919050565b6000610b9b82610b6e565b9050919050565b6000610bad82610b90565b9050919050565b610bbd81610ba2565b82525050565b610bcc81610b01565b82525050565b6000608082019050610be76000830187610bb4565b610bf46020830186610bc3565b610c016040830185610bc3565b610c0e6060830184610bc3565b95945050505050565b6000602082019050610c2c6000830184610bc3565b92915050565b60008115159050919050565b610c4781610c32565b82525050565b6000602082019050610c626000830184610c3e565b92915050565b60008060408385031215610c7f57610c7e610a5f565b5b6000610c8d85828601610b22565b9250506020610c9e85828601610b22565b9150509250929050565b610cb181610a84565b8114610cbc57600080fd5b50565b600081359050610cce81610ca8565b92915050565b60008060408385031215610ceb57610cea610a5f565b5b6000610cf985828601610b22565b9250506020610d0a85828601610cbf565b9150509250929050565b6000604082019050610d296000830185610bc3565b610d366020830184610bc3565b9392505050565b6000610d4882610a84565b9050919050565b610d5881610d3d565b8114610d6357600080fd5b50565b600081359050610d7581610d4f565b92915050565b600060208284031215610d9157610d90610a5f565b5b6000610d9f84828501610d66565b91505092915050565b6000610db382610b90565b9050919050565b610dc381610da8565b82525050565b6000602082019050610dde6000830184610dba565b92915050565b7f4e487b7100000000000000000000000000000000000000000000000000000000600052601160045260246000fd5b6000610e1e82610b01565b9150610e2983610b01565b9250828201905080821115610e4157610e40610de4565b5b92915050565b7f4e487b7100000000000000000000000000000000000000000000000000000000600052603260045260246000fd5b600082825260208201905092915050565b7f4e6f2073756666696369656e742066756e640000000000000000000000000000600082015250565b6000610ebd601283610e76565b9150610ec882610e87565b602082019050919050565b60006020820190508181036000830152610eec81610eb0565b9050919050565b6000610efe82610b01565b9150610f0983610b01565b9250828202610f1781610b01565b91508282048414831517610f2e57610f2d610de4565b5b5092915050565b6000610f4082610b01565b9150610f4b83610b01565b9250828203905081811115610f6357610f62610de4565b5b92915050565b610f7281610a84565b82525050565b6000604082019050610f8d6000830185610f69565b610f9a6020830184610bc3565b9392505050565b610faa81610c32565b8114610fb557600080fd5b50565b600081519050610fc781610fa1565b92915050565b600060208284031215610fe357610fe2610a5f565b5b6000610ff184828501610fb8565b91505092915050565b600060608201905061100f6000830186610f69565b61101c6020830185610f69565b6110296040830184610bc3565b94935050505056fea2646970667358221220c497e9c7eb41a0d2b2dca050241854d365e87a7a7189e2b57f42184ba462f91864736f6c63430008120033",
  "devdoc": {
    "kind": "dev",
    "methods": {},
    "version": 1
  },
  "userdoc": {
    "kind": "user",
    "methods": {},
    "version": 1
  },
  "storageLayout": {
    "storage": [
      {
        "astId": 1010,
        "contract": "contracts/stakingPool.sol:StakingPool",
        "label": "isInitialized",
        "offset": 0,
        "slot": "0",
        "type": "t_bool"
      },
      {
        "astId": 1013,
        "contract": "contracts/stakingPool.sol:StakingPool",
        "label": "totalAllocPoint",
        "offset": 0,
        "slot": "1",
        "type": "t_uint256"
      },
      {
        "astId": 1016,
        "contract": "contracts/stakingPool.sol:StakingPool",
        "label": "startBlock",
        "offset": 0,
        "slot": "2",
        "type": "t_uint256"
      },
      {
        "astId": 1019,
        "contract": "contracts/stakingPool.sol:StakingPool",
        "label": "rewardToken",
        "offset": 0,
        "slot": "3",
        "type": "t_contract(SusuToken)988"
      },
      {
        "astId": 1023,
        "contract": "contracts/stakingPool.sol:StakingPool",
        "label": "poolInfo",
        "offset": 0,
        "slot": "4",
        "type": "t_array(t_struct(PoolInfo)1007_storage)dyn_storage"
      },
      {
        "astId": 1030,
        "contract": "contracts/stakingPool.sol:StakingPool",
        "label": "userInfo",
        "offset": 0,
        "slot": "5",
        "type": "t_mapping(t_uint256,t_mapping(t_address,t_struct(UserInfo)997_storage))"
      }
    ],
    "types": {
      "t_address": {
        "encoding": "inplace",
        "label": "address",
        "numberOfBytes": "20"
      },
      "t_array(t_struct(PoolInfo)1007_storage)dyn_storage": {
        "base": "t_struct(PoolInfo)1007_storage",
        "encoding": "dynamic_array",
        "label": "struct PoolInfo[]",
        "numberOfBytes": "32"
      },
      "t_bool": {
        "encoding": "inplace",
        "label": "bool",
        "numberOfBytes": "1"
      },
      "t_contract(ERC20)699": {
        "encoding": "inplace",
        "label": "contract ERC20",
        "numberOfBytes": "20"
      },
      "t_contract(SusuToken)988": {
        "encoding": "inplace",
        "label": "contract SusuToken",
        "numberOfBytes": "20"
      },
      "t_mapping(t_address,t_struct(UserInfo)997_storage)": {
        "encoding": "mapping",
        "key": "t_address",
        "label": "mapping(address => struct UserInfo)",
        "numberOfBytes": "32",
        "value": "t_struct(UserInfo)997_storage"
      },
      "t_mapping(t_uint256,t_mapping(t_address,t_struct(UserInfo)997_storage))": {
        "encoding": "mapping",
        "key": "t_uint256",
        "label": "mapping(uint256 => mapping(address => struct UserInfo))",
        "numberOfBytes": "32",
        "value": "t_mapping(t_address,t_struct(UserInfo)997_storage)"
      },
      "t_struct(PoolInfo)1007_storage": {
        "encoding": "inplace",
        "label": "struct PoolInfo",
        "members": [
          {
            "astId": 1000,
            "contract": "contracts/stakingPool.sol:StakingPool",
            "label": "lpToken",
            "offset": 0,
            "slot": "0",
            "type": "t_contract(ERC20)699"
          },
          {
            "astId": 1002,
            "contract": "contracts/stakingPool.sol:StakingPool",
            "label": "allocPoint",
            "offset": 0,
            "slot": "1",
            "type": "t_uint256"
          },
          {
            "astId": 1004,
            "contract": "contracts/stakingPool.sol:StakingPool",
            "label": "lastRewardBlock",
            "offset": 0,
            "slot": "2",
            "type": "t_uint256"
          },
          {
            "astId": 1006,
            "contract": "contracts/stakingPool.sol:StakingPool",
            "label": "accRewardPerShare",
            "offset": 0,
            "slot": "3",
            "type": "t_uint256"
          }
        ],
        "numberOfBytes": "128"
      },
      "t_struct(UserInfo)997_storage": {
        "encoding": "inplace",
        "label": "struct UserInfo",
        "members": [
          {
            "astId": 994,
            "contract": "contracts/stakingPool.sol:StakingPool",
            "label": "amount",
            "offset": 0,
            "slot": "0",
            "type": "t_uint256"
          },
          {
            "astId": 996,
            "contract": "contracts/stakingPool.sol:StakingPool",
            "label": "rewardDebt",
            "offset": 0,
            "slot": "1",
            "type": "t_uint256"
          }
        ],
        "numberOfBytes": "64"
      },
      "t_uint256": {
        "encoding": "inplace",
        "label": "uint256",
        "numberOfBytes": "32"
      }
    }
  }
}