{
  "address": "0xCf7Ed3AccA5a467e9e704C703E8D87F634fB0Fc9",
  "abi": [
    {
      "inputs": [],
      "stateMutability": "nonpayable",
      "type": "constructor"
    },
    {
      "anonymous": false,
      "inputs": [
        {
          "indexed": true,
          "internalType": "address",
          "name": "user",
          "type": "address"
        },
        {
          "indexed": true,
          "internalType": "uint256",
          "name": "pid",
          "type": "uint256"
        },
        {
          "indexed": false,
          "internalType": "uint256",
          "name": "amount",
          "type": "uint256"
        }
      ],
      "name": "Deposit",
      "type": "event"
    },
    {
      "anonymous": false,
      "inputs": [
        {
          "indexed": true,
          "internalType": "address",
          "name": "user",
          "type": "address"
        },
        {
          "indexed": true,
          "internalType": "uint256",
          "name": "pid",
          "type": "uint256"
        },
        {
          "indexed": false,
          "internalType": "uint256",
          "name": "amount",
          "type": "uint256"
        }
      ],
      "name": "Withdraw",
      "type": "event"
    },
    {
      "inputs": [
        {
          "internalType": "contract ERC20",
          "name": "_lpToken",
          "type": "address"
        }
      ],
      "name": "add",
      "outputs": [],
      "stateMutability": "nonpayable",
      "type": "function"
    },
    {
      "inputs": [
        {
          "internalType": "uint256",
          "name": "_pid",
          "type": "uint256"
        },
        {
          "internalType": "uint256",
          "name": "_amount",
          "type": "uint256"
        }
      ],
      "name": "deposit",
      "outputs": [],
      "stateMutability": "nonpayable",
      "type": "function"
    },
    {
      "inputs": [
        {
          "internalType": "contract SusuToken",
          "name": "_token",
          "type": "address"
        }
      ],
      "name": "initialize",
      "outputs": [],
      "stateMutability": "nonpayable",
      "type": "function"
    },
    {
      "inputs": [],
      "name": "isInitialized",
      "outputs": [
        {
          "internalType": "bool",
          "name": "",
          "type": "bool"
        }
      ],
      "stateMutability": "view",
      "type": "function"
    },
    {
      "inputs": [
        {
          "internalType": "uint256",
          "name": "",
          "type": "uint256"
        }
      ],
      "name": "poolInfo",
      "outputs": [
        {
          "internalType": "contract ERC20",
          "name": "lpToken",
          "type": "address"
        },
        {
          "internalType": "uint256",
          "name": "allocPoint",
          "type": "uint256"
        },
        {
          "internalType": "uint256",
          "name": "lastRewardBlock",
          "type": "uint256"
        },
        {
          "internalType": "uint256",
          "name": "accRewardPerShare",
          "type": "uint256"
        }
      ],
      "stateMutability": "view",
      "type": "function"
    },
    {
      "inputs": [],
      "name": "rewardToken",
      "outputs": [
        {
          "internalType": "contract SusuToken",
          "name": "",
          "type": "address"
        }
      ],
      "stateMutability": "view",
      "type": "function"
    },
    {
      "inputs": [],
      "name": "startBlock",
      "outputs": [
        {
          "internalType": "uint256",
          "name": "",
          "type": "uint256"
        }
      ],
      "stateMutability": "view",
      "type": "function"
    },
    {
      "inputs": [],
      "name": "totalAllocPoint",
      "outputs": [
        {
          "internalType": "uint256",
          "name": "",
          "type": "uint256"
        }
      ],
      "stateMutability": "view",
      "type": "function"
    },
    {
      "inputs": [
        {
          "internalType": "uint256",
          "name": "",
          "type": "uint256"
        },
        {
          "internalType": "address",
          "name": "",
          "type": "address"
        }
      ],
      "name": "userInfo",
      "outputs": [
        {
          "internalType": "uint256",
          "name": "amount",
          "type": "uint256"
        },
        {
          "internalType": "uint256",
          "name": "rewardDebt",
          "type": "uint256"
        }
      ],
      "stateMutability": "view",
      "type": "function"
    },
    {
      "inputs": [
        {
          "internalType": "uint256",
          "name": "_pid",
          "type": "uint256"
        },
        {
          "internalType": "uint256",
          "name": "_amount",
          "type": "uint256"
        }
      ],
      "name": "withdraw",
      "outputs": [],
      "stateMutability": "nonpayable",
      "type": "function"
    }
  ],
  "transactionHash": "0x24761cacb0dc7de856acf7330e5d887c35f4cdc96f59d4982d17c196af5e7ef2",
  "args": [],
  "numDeployments": 1,
  "solcInputHash": "057fc7be63897e96def7081195bca590",
  "bytecode": "0x608060405260008060006101000a81548160ff0219169083151502179055506000600155600060025534801561003457600080fd5b50611066806100446000396000f3fe608060405234801561001057600080fd5b506004361061009e5760003560e01c806348cd4cb11161006657806348cd4cb11461014a57806393f1a40b14610168578063c4d66de814610199578063e2bbb158146101b5578063f7c618c1146101d15761009e565b80630a3b0a4f146100a35780631526fe27146100bf57806317caf6f1146100f2578063392e53cd14610110578063441a3e701461012e575b600080fd5b6100bd60048036038101906100b89190610ad3565b6101ef565b005b6100d960048036038101906100d49190610b36565b6102f4565b6040516100e99493929190610bd1565b60405180910390f35b6100fa610354565b6040516101079190610c16565b60405180910390f35b61011861035a565b6040516101259190610c4c565b60405180910390f35b61014860048036038101906101439190610c67565b61036b565b005b6101526106be565b60405161015f9190610c16565b60405180910390f35b610182600480360381019061017d9190610cd3565b6106c4565b604051610190929190610d13565b60405180910390f35b6101b360048036038101906101ae9190610d7a565b6106f5565b005b6101cf60048036038101906101ca9190610c67565b610739565b005b6101d9610a38565b6040516101e69190610dc8565b60405180910390f35b6000600254431161020257600254610204565b435b9050600060649050806001600082825461021e9190610e12565b92505081905550600460405180608001604052808573ffffffffffffffffffffffffffffffffffffffff1681526020018381526020018481526020016000815250908060018154018082558091505060019003906000526020600020906004020160009091909190915060008201518160000160006101000a81548173ffffffffffffffffffffffffffffffffffffffff021916908373ffffffffffffffffffffffffffffffffffffffff1602179055506020820151816001015560408201518160020155606082015181600301555050505050565b6004818154811061030457600080fd5b90600052602060002090600402016000915090508060000160009054906101000a900473ffffffffffffffffffffffffffffffffffffffff16908060010154908060020154908060030154905084565b60015481565b60008054906101000a900460ff1681565b60006004838154811061038157610380610e46565b5b90600052602060002090600402016040518060800160405290816000820160009054906101000a900473ffffffffffffffffffffffffffffffffffffffff1673ffffffffffffffffffffffffffffffffffffffff1673ffffffffffffffffffffffffffffffffffffffff1681526020016001820154815260200160028201548152602001600382015481525050905060006005600085815260200190815260200160002060003373ffffffffffffffffffffffffffffffffffffffff1673ffffffffffffffffffffffffffffffffffffffff168152602001908152602001600020604051806040016040529081600082015481526020016001820154815250509050828160000151116104c9576040517f08c379a00000000000000000000000000000000000000000000000000000000081526004016104c090610ed2565b60405180910390fd5b60008160200151836060015183600001516104e49190610ef2565b6104ee9190610f34565b9050600360009054906101000a900473ffffffffffffffffffffffffffffffffffffffff1673ffffffffffffffffffffffffffffffffffffffff1663a9059cbb33836040518363ffffffff1660e01b815260040161054d929190610f77565b6020604051808303816000875af115801561056c573d6000803e3d6000fd5b505050506040513d601f19601f820116820180604052508101906105909190610fcc565b50600360009054906101000a900473ffffffffffffffffffffffffffffffffffffffff1673ffffffffffffffffffffffffffffffffffffffff1663a9059cbb33866040518363ffffffff1660e01b81526004016105ee929190610f77565b6020604051808303816000875af115801561060d573d6000803e3d6000fd5b505050506040513d601f19601f820116820180604052508101906106319190610fcc565b5083826000018181516106449190610f34565b915081815250508260600151826000015161065f9190610ef2565b826020018181525050843373ffffffffffffffffffffffffffffffffffffffff167ff279e6a1f5e320cca91135676d9cb6e44ca8a08c0b88342bcdb1144f6511b568866040516106af9190610c16565b60405180910390a35050505050565b60025481565b6005602052816000526040600020602052806000526040600020600091509150508060000154908060010154905082565b80600360006101000a81548173ffffffffffffffffffffffffffffffffffffffff021916908373ffffffffffffffffffffffffffffffffffffffff16021790555050565b60006004838154811061074f5761074e610e46565b5b90600052602060002090600402016040518060800160405290816000820160009054906101000a900473ffffffffffffffffffffffffffffffffffffffff1673ffffffffffffffffffffffffffffffffffffffff1673ffffffffffffffffffffffffffffffffffffffff1681526020016001820154815260200160028201548152602001600382015481525050905060006005600085815260200190815260200160002060003373ffffffffffffffffffffffffffffffffffffffff1673ffffffffffffffffffffffffffffffffffffffff1681526020019081526020016000206040518060400160405290816000820154815260200160018201548152505090506000816000015111156109285760008160200151836060015183600001516108799190610ef2565b6108839190610f34565b9050600360009054906101000a900473ffffffffffffffffffffffffffffffffffffffff1673ffffffffffffffffffffffffffffffffffffffff1663a9059cbb33836040518363ffffffff1660e01b81526004016108e2929190610f77565b6020604051808303816000875af1158015610901573d6000803e3d6000fd5b505050506040513d601f19601f820116820180604052508101906109259190610fcc565b50505b816000015173ffffffffffffffffffffffffffffffffffffffff166323b872dd3330866040518463ffffffff1660e01b815260040161096993929190610ff9565b6020604051808303816000875af1158015610988573d6000803e3d6000fd5b505050506040513d601f19601f820116820180604052508101906109ac9190610fcc565b5082816000018181516109bf9190610e12565b91508181525050816060015181600001516109da9190610ef2565b816020018181525050833373ffffffffffffffffffffffffffffffffffffffff167f90890809c654f11d6e72a28fa60149770a0d11ec6c92319d6ceb2bb0a4ea1a1585604051610a2a9190610c16565b60405180910390a350505050565b600360009054906101000a900473ffffffffffffffffffffffffffffffffffffffff1681565b600080fd5b600073ffffffffffffffffffffffffffffffffffffffff82169050919050565b6000610a8e82610a63565b9050919050565b6000610aa082610a83565b9050919050565b610ab081610a95565b8114610abb57600080fd5b50565b600081359050610acd81610aa7565b92915050565b600060208284031215610ae957610ae8610a5e565b5b6000610af784828501610abe565b91505092915050565b6000819050919050565b610b1381610b00565b8114610b1e57600080fd5b50565b600081359050610b3081610b0a565b92915050565b600060208284031215610b4c57610b4b610a5e565b5b6000610b5a84828501610b21565b91505092915050565b6000819050919050565b6000610b88610b83610b7e84610a63565b610b63565b610a63565b9050919050565b6000610b9a82610b6d565b9050919050565b6000610bac82610b8f565b9050919050565b610bbc81610ba1565b82525050565b610bcb81610b00565b82525050565b6000608082019050610be66000830187610bb3565b610bf36020830186610bc2565b610c006040830185610bc2565b610c0d6060830184610bc2565b95945050505050565b6000602082019050610c2b6000830184610bc2565b92915050565b60008115159050919050565b610c4681610c31565b82525050565b6000602082019050610c616000830184610c3d565b92915050565b60008060408385031215610c7e57610c7d610a5e565b5b6000610c8c85828601610b21565b9250506020610c9d85828601610b21565b9150509250929050565b610cb081610a83565b8114610cbb57600080fd5b50565b600081359050610ccd81610ca7565b92915050565b60008060408385031215610cea57610ce9610a5e565b5b6000610cf885828601610b21565b9250506020610d0985828601610cbe565b9150509250929050565b6000604082019050610d286000830185610bc2565b610d356020830184610bc2565b9392505050565b6000610d4782610a83565b9050919050565b610d5781610d3c565b8114610d6257600080fd5b50565b600081359050610d7481610d4e565b92915050565b600060208284031215610d9057610d8f610a5e565b5b6000610d9e84828501610d65565b91505092915050565b6000610db282610b8f565b9050919050565b610dc281610da7565b82525050565b6000602082019050610ddd6000830184610db9565b92915050565b7f4e487b7100000000000000000000000000000000000000000000000000000000600052601160045260246000fd5b6000610e1d82610b00565b9150610e2883610b00565b9250828201905080821115610e4057610e3f610de3565b5b92915050565b7f4e487b7100000000000000000000000000000000000000000000000000000000600052603260045260246000fd5b600082825260208201905092915050565b7f4e6f2073756666696369656e742066756e640000000000000000000000000000600082015250565b6000610ebc601283610e75565b9150610ec782610e86565b602082019050919050565b60006020820190508181036000830152610eeb81610eaf565b9050919050565b6000610efd82610b00565b9150610f0883610b00565b9250828202610f1681610b00565b91508282048414831517610f2d57610f2c610de3565b5b5092915050565b6000610f3f82610b00565b9150610f4a83610b00565b9250828203905081811115610f6257610f61610de3565b5b92915050565b610f7181610a83565b82525050565b6000604082019050610f8c6000830185610f68565b610f996020830184610bc2565b9392505050565b610fa981610c31565b8114610fb457600080fd5b50565b600081519050610fc681610fa0565b92915050565b600060208284031215610fe257610fe1610a5e565b5b6000610ff084828501610fb7565b91505092915050565b600060608201905061100e6000830186610f68565b61101b6020830185610f68565b6110286040830184610bc2565b94935050505056fea2646970667358221220151a3ee9f10adab6928b06a898e1943dd4e85eb19e8a3babdb8bbe0cdc7e605264736f6c63430008120033",
  "devdoc": {
    "kind": "dev",
    "methods": {},
    "version": 1
  },
  "userdoc": {
    "kind": "user",
    "methods": {},
    "version": 1
  },
  "storageLayout": {
    "storage": [
      {
        "astId": 2117,
        "contract": "contracts/stakingPool.sol:StakingPool",
        "label": "isInitialized",
        "offset": 0,
        "slot": "0",
        "type": "t_bool"
      },
      {
        "astId": 2120,
        "contract": "contracts/stakingPool.sol:StakingPool",
        "label": "totalAllocPoint",
        "offset": 0,
        "slot": "1",
        "type": "t_uint256"
      },
      {
        "astId": 2123,
        "contract": "contracts/stakingPool.sol:StakingPool",
        "label": "startBlock",
        "offset": 0,
        "slot": "2",
        "type": "t_uint256"
      },
      {
        "astId": 2126,
        "contract": "contracts/stakingPool.sol:StakingPool",
        "label": "rewardToken",
        "offset": 0,
        "slot": "3",
        "type": "t_contract(SusuToken)2095"
      },
      {
        "astId": 2130,
        "contract": "contracts/stakingPool.sol:StakingPool",
        "label": "poolInfo",
        "offset": 0,
        "slot": "4",
        "type": "t_array(t_struct(PoolInfo)2114_storage)dyn_storage"
      },
      {
        "astId": 2137,
        "contract": "contracts/stakingPool.sol:StakingPool",
        "label": "userInfo",
        "offset": 0,
        "slot": "5",
        "type": "t_mapping(t_uint256,t_mapping(t_address,t_struct(UserInfo)2104_storage))"
      }
    ],
    "types": {
      "t_address": {
        "encoding": "inplace",
        "label": "address",
        "numberOfBytes": "20"
      },
      "t_array(t_struct(PoolInfo)2114_storage)dyn_storage": {
        "base": "t_struct(PoolInfo)2114_storage",
        "encoding": "dynamic_array",
        "label": "struct PoolInfo[]",
        "numberOfBytes": "32"
      },
      "t_bool": {
        "encoding": "inplace",
        "label": "bool",
        "numberOfBytes": "1"
      },
      "t_contract(ERC20)1410": {
        "encoding": "inplace",
        "label": "contract ERC20",
        "numberOfBytes": "20"
      },
      "t_contract(SusuToken)2095": {
        "encoding": "inplace",
        "label": "contract SusuToken",
        "numberOfBytes": "20"
      },
      "t_mapping(t_address,t_struct(UserInfo)2104_storage)": {
        "encoding": "mapping",
        "key": "t_address",
        "label": "mapping(address => struct UserInfo)",
        "numberOfBytes": "32",
        "value": "t_struct(UserInfo)2104_storage"
      },
      "t_mapping(t_uint256,t_mapping(t_address,t_struct(UserInfo)2104_storage))": {
        "encoding": "mapping",
        "key": "t_uint256",
        "label": "mapping(uint256 => mapping(address => struct UserInfo))",
        "numberOfBytes": "32",
        "value": "t_mapping(t_address,t_struct(UserInfo)2104_storage)"
      },
      "t_struct(PoolInfo)2114_storage": {
        "encoding": "inplace",
        "label": "struct PoolInfo",
        "members": [
          {
            "astId": 2107,
            "contract": "contracts/stakingPool.sol:StakingPool",
            "label": "lpToken",
            "offset": 0,
            "slot": "0",
            "type": "t_contract(ERC20)1410"
          },
          {
            "astId": 2109,
            "contract": "contracts/stakingPool.sol:StakingPool",
            "label": "allocPoint",
            "offset": 0,
            "slot": "1",
            "type": "t_uint256"
          },
          {
            "astId": 2111,
            "contract": "contracts/stakingPool.sol:StakingPool",
            "label": "lastRewardBlock",
            "offset": 0,
            "slot": "2",
            "type": "t_uint256"
          },
          {
            "astId": 2113,
            "contract": "contracts/stakingPool.sol:StakingPool",
            "label": "accRewardPerShare",
            "offset": 0,
            "slot": "3",
            "type": "t_uint256"
          }
        ],
        "numberOfBytes": "128"
      },
      "t_struct(UserInfo)2104_storage": {
        "encoding": "inplace",
        "label": "struct UserInfo",
        "members": [
          {
            "astId": 2101,
            "contract": "contracts/stakingPool.sol:StakingPool",
            "label": "amount",
            "offset": 0,
            "slot": "0",
            "type": "t_uint256"
          },
          {
            "astId": 2103,
            "contract": "contracts/stakingPool.sol:StakingPool",
            "label": "rewardDebt",
            "offset": 0,
            "slot": "1",
            "type": "t_uint256"
          }
        ],
        "numberOfBytes": "64"
      },
      "t_uint256": {
        "encoding": "inplace",
        "label": "uint256",
        "numberOfBytes": "32"
      }
    }
  }
}